:100000000C9463000C948B000C948B000C948B006C
:100010000C948B000C948B000C948B000C948B0034
:100020000C948B000C948B000C948B000C948B0024
:100030000C948B000C948B000C948B000C948B0014
:100040000C945A070C948B000C9428070C9402070C
:100050000C948B000C948B000C948B000C948B00F4
:100060000C94A4070C948B000000000024002700CF
:100070002A0000000000250028002B0000000000DE
:1000800023002600290004040404040404040202DA
:100090000202020203030303030301020408102007
:1000A0004080010204081020010204081020000012
:1000B0000008000201000003040700000000000027
:1000C0000000C308FD0C11241FBECFEFD8E0DEBF37
:1000D000CDBF24E0A0EBB2E001C01D92AD39B20764
:1000E000E1F712E0A0E0B1E0ECE6FFE102C005902C
:1000F0000D92A03BB107D9F710E0C2E6D0E004C0F2
:100100002197FE010E94B10DC136D107C9F70E94A7
:1001100076090C94A90F0C94000008950895AF92ED
:10012000BF92CF92DF92EF92FF920F931F93CF93E4
:10013000DF936C017B018B01040F151FEB015E0146
:10014000AE18BF08C017D10759F06991D601ED91DB
:10015000FC910190F081E02DC6010995892B79F77A
:10016000C501DF91CF911F910F91FF90EF90DF902C
:10017000CF90BF90AF900895FC01538D448D252FF3
:1001800030E0842F90E0821B930B541710F0CF9631
:10019000089501970895FC01918D828D981761F063
:1001A000A28DAE0FBF2FB11D5D968C91928D9F5F7A
:1001B0009F73928F90E008958FEF9FEF0895FC0159
:1001C000918D828D981731F0828DE80FF11D858D0C
:1001D00090E008958FEF9FEF0895FC01918D228D9F
:1001E000892F90E0805C9F4F821B91098F73992724
:1001F000089588E793E00E94ED0021E0892B09F43F
:1002000020E0822F089580E090E0892B29F00E9461
:10021000F90081110C9400000895FC01A48DA80F31
:10022000B92FB11DA35ABF4F2C91848D90E0019638
:100230008F739927848FA689B7892C93A089B18958
:100240008C91837080648C93938D848D981306C0F9
:100250000288F389E02D80818F7D80830895EF925D
:10026000FF920F931F93CF93DF93EC0181E0888F70
:100270009B8D8C8D98131AC0E889F989808185FF40
:1002800015C09FB7F894EE89FF896083E889F989E2
:1002900080818370806480839FBF81E090E0DF91E4
:1002A000CF911F910F91FF90EF900895F62E0B8D37
:1002B00010E00F5F1F4F0F731127E02E8C8D8E11F2
:1002C0000CC00FB607FCFACFE889F989808185FF59
:1002D000F5CFCE010E940D01F1CFEB8DEC0FFD2F7C
:1002E000F11DE35AFF4FF0829FB7F8940B8FEA8914
:1002F000FB8980818062CFCFCF93DF93EC01888D23
:100300008823B9F0AA89BB89E889F9898C9185FD90
:1003100003C0808186FD0DC00FB607FCF7CF8C911E
:1003200085FFF2CF808185FFEDCFCE010E940D01C8
:10033000E9CFDF91CF910895833081F028F48130A7
:1003400099F08230A9F008958730A9F08830C9F07B
:100350008430B1F4809180008F7D03C08091800053
:100360008F7780938000089584B58F7784BD08953A
:1003700084B58F7DFBCF8091B0008F778093B000E4
:1003800008958091B0008F7DF9CFCF93DF93282F10
:1003900030E0F901E255FF4F8491F901E656FF4F35
:1003A000D491F901EA57FF4FC491CC23A1F08111F8
:1003B0000E949C01EC2FF0E0EE0FFF1FE458FF4F6E
:1003C000A591B491EC91ED2381E090E009F480E0F7
:1003D000DF91CF91089580E090E0FACF1F93CF9303
:1003E000DF93282F30E0F901E255FF4F8491F901A6
:1003F000E656FF4FD491F901EA57FF4FC491CC2341
:10040000A9F0162F81110E949C01EC2FF0E0EE0F55
:10041000FF1FEE58FF4FA591B4918FB7F894EC9160
:10042000111108C0D095DE23DC938FBFDF91CF91EF
:100430001F910895DE2BF8CFCF93DF9390E0FC015E
:10044000E656FF4F24918A579F4FFC0184918823E1
:10045000C9F090E0880F991FFC01E859FF4FA59162
:10046000B491FC01EE58FF4FC591D49161110DC0BC
:100470009FB7F8948C91209582238C9388812823B0
:1004800028839FBFDF91CF910895623051F49FB7C9
:10049000F8943C91822F809583238C93E8812E2BB6
:1004A000EFCF8FB7F894EC912E2B2C938FBFEACF20
:1004B0003FB7F8948091670390916803A091690316
:1004C000B0916A0326B5A89B05C02F3F19F001968D
:1004D000A11DB11D3FBFBA2FA92F982F8827BC019E
:1004E000CD01620F711D811D911D42E0660F771FC6
:1004F000881F991F4A95D1F708958F929F92AF92C6
:10050000BF92CF92DF92EF92FF924B015C010E946B
:1005100058026B017C010E9458026C197D098E09FA
:100520009F09683E734081059105A8F321E0821A76
:100530009108A108B10888EEC80E83E0D81EE11C1E
:10054000F11C81149104A104B10429F7FF90EF90EC
:10055000DF90CF90BF90AF909F908F9008950895B7
:100560002091F102260F3327331F21323105ECF49D
:1005700020913A03FC0190E080E0243069F082E0B1
:100580000895A091F1022191AC014F525D4FA40F4B
:10059000B52FB11D2C930196861798F38091F10227
:1005A000680F6093F10280E0089581E00895109251
:1005B0003A0381E0809339031092140361E082E1F1
:1005C0000E94EE0161E083E10E94EE01E9EBF0E0C0
:1005D00080818E7F808380818D7F808388E480937B
:1005E000B80085E48093BC000895CF93DF9391E039
:1005F0009093D0028823B9F0C091B800D091BA008E
:100600008091BC008A7B8093BC0060E082E10E9404
:10061000EE0160E083E10E94EE010E94D702D093D8
:10062000BA00C093B800DF91CF9108950895E0918A
:10063000770380917603E81730F4F0E0E055FD4F42
:10064000808190E008958FEF9FEF08959091770358
:10065000809176032FEF3FEF981748F4E92FF0E0F1
:10066000E055FD4F208130E09F5F90937703C901F3
:1006700008958091760390917703891B990B0895D3
:10068000CF92DF92EF92FF920F931F93CF93DF935E
:100690007C01CB018A0120914003222389F0EB01E8
:1006A0006B01C40ED51ECC15DD0569F06991D7012B
:1006B000ED91FC910190F081E02DC7010995F3CFF8
:1006C000642F0E94B002C801DF91CF911F910F915A
:1006D000FF90EF90DF90CF900895CF93DF931F921C
:1006E000CDB7DEB76983209140032223F9F0209132
:1006F0007403203258F021E030E0FC013383228380
:1007000090E080E00F90DF91CF9108958091750384
:10071000E82FF0E0EF5BFC4F998190838F5F80932F
:1007200075038093740381E090E0ECCF61E0CE012B
:1007300001960E94B002F7CFCF92DF92EF92FF9224
:100740000F931F93CF93DF93FC01C48121E020938B
:100750004003C09361031092750310927403838564
:10076000682B85E194E00E946D03D0917403D1322F
:1007700008F092C00E9458026B017C0180913A03FC
:10078000811165C082E080933A0381E08093390350
:100790008FEF8093380310923703D0933603A1E490
:1007A000B3E0E6E1F3E080E0D81385C010921503D2
:1007B00080911503CC0FC82BC093150380911403AF
:1007C000813009F07CC0109214030E9458026B0122
:1007D0007C01809115038093BB0080913C03909134
:1007E0003D03A0913E03B0913F03892B8A2B8B2BB5
:1007F00099F00E94580200913C0310913D03209112
:100800003E0330913F036C197D098E099F0906173D
:10081000170728073907E0F18091BC0083FDD9CF85
:1008200085EC8093BC000E9458026B017C01809192
:100830003A03823009F445C0809138038F3F61F15B
:1008400080913803803241F18091380325C0809136
:100850003C0390913D03A0913E03B0913F03892B4F
:100860008A2B8B2B09F48ACF0E94580200913C03FB
:1008700010913D0320913E0330913F036C197D0997
:100880008E099F09061717072807390708F076CF42
:1008900080913B030E94F50210927503109274033D
:1008A00010924003DF91CF911F910F91FF90EF9035
:1008B000DF90CF9008959D9191938F5F75CF85EED6
:1008C000B0CF80913C0390913D03A0913E03B09145
:1008D0003F03892B8A2B8B2B09F4A9CF0E94580246
:1008E00000913C0310913D0320913E0330913F0362
:1008F0006C197D098E099F09061717072807390704
:1009000008F095CFC5CF90E080E008950F931F9336
:10091000CF938C01C62F0E949C036C2F6460C8018A
:100920000E949C036C2F6B7FC8010E949C0383EC88
:1009300090E00197F1F7CF911F910F9108950F93D8
:100940001F93CF93DF938C01D62FC42F607F642B2E
:100950000E94860480E1D89FB00111246C2BC8014D
:10096000DF91CF911F910F910C948604CF93DF9369
:10097000CDB7DEB728970FB6F894DEBF0FBECDBF58
:1009800098E0E7E0F1E0DE01119601900D929A9572
:10099000E1F790919504981708F48FEF90E0880F95
:1009A000991F21E030E02C0F3D1F820F931FFC01A7
:1009B0006081606840E08DE894E028960FB6F89476
:1009C000DEBF0FBECDBFDF91CF910C949F0440E0FE
:1009D00061E08DE894E00E949F048BE39FE1019722
:1009E000F1F70895CF93DF93109277031092760377
:1009F00010927503109274030E94D7028DE890E064
:100A000090937303809372038EE890E09093710348
:100A1000809370031092920480919704823018F0B2
:100A200098E0909392048093950462E370E080E0F4
:100A300090E00E947D02609198048DE894E00E940D
:100A40009C0368EE73E080E090E00E947D0260E32A
:100A50008DE894E00E948604CBE4D6E4CE010197B1
:100A6000F1F760E38DE894E00E9486042197F1F7A6
:100A700060E38DE894E00E94860483E592E00197AC
:100A8000F1F760E28DE894E00E94860460919204A0
:100A9000606240E08DE894E00E949F0484E08093CF
:100AA000930440E06CE08DE894E00E949F040E9473
:100AB000E70482E08093940440E066E08DE894E0EF
:100AC0000E949F0440E062E08DE894E00E949F0451
:100AD0008BE39FE10197F1F7DF91CF91089541E01A
:100AE0000E949F0481E090E00895FC0101900020A5
:100AF000E9F73197AF01481B590BBC018DE894E031
:100B00000C948F000F931F93CF93DF93EC01888198
:100B10009981009759F02A813B812617370730F0D9
:100B200081E0DF91CF911F910F9108958B016F5F4D
:100B30007F4F0E94DC0E009759F0998388831B83B6
:100B40000A832C813D81232B59F7FC011082E8CFC9
:100B500080E0E7CFEF92FF920F931F93CF93DF9345
:100B60006115710541F480E0DF91CF911F910F91E4
:100B7000FF90EF90089541155105B1F07B01EC0114
:100B80000C811D81040F151FB8010E948205882366
:100B900051F3288139818C819D81B701820F931F88
:100BA0000E94A20F1D830C8381E0DECFCF93DF93E1
:100BB000EC0188819981009711F00E94530E1982EF
:100BC00018821D821C821B821A82DF91CF910895A8
:100BD000CF93DF93EC0141E050E06FE371E00E94BE
:100BE000AA05811103C0CE010E94D605CE01DF9176
:100BF000CF910895EF92FF920F931F93CF93DF93BE
:100C0000CDB7DEB728970FB6F894DEBF0FBECDBFC5
:100C10007C01CB014AE08E010F5F1F4FB8010E949B
:100C2000450DF80101900020E9F73197AF01401B15
:100C3000510BB801C7010E94AA05811103C0C70169
:100C40000E94D605C70128960FB6F894DEBF0FBEE6
:100C5000CDBFDF91CF911F910F91FF90EF9008953D
:100C6000CF93DF93EC01FB01448155816081718159
:100C70000E94AA05811103C0CE010E94D605CE01B3
:100C8000DF91CF910895EF92FF920F931F93CF932F
:100C9000DF93EC017B018A01BA010E948205811178
:100CA0000BC0CE010E94D605CE01DF91CF911F91DE
:100CB0000F91FF90EF9008951D830C83B7018881F9
:100CC00099810E94A20FF0CFFB0101900020E9F76B
:100CD0003197AF01461B570B0C9443060F931F939C
:100CE000CF93DF93CDB7DEB762970FB6F894DEBF30
:100CF0000FBECDBF8C01CB01F8011182108213828F
:100D00001282158214824AE0BE016F5F7F4F0E94FB
:100D1000450DBE016F5F7F4FC8010E946406629659
:100D20000FB6F894DEBF0FBECDBFDF91CF911F91FC
:100D30000F910895CF93DF93EC01FB01861797077E
:100D400049F0608171816115710541F044815581DF
:100D50000E944306CE01DF91CF9108950E94D605EF
:100D6000F9CFFC0111821082138212821582148243
:100D7000FB0101900020E9F73197AF01461B570BAB
:100D80000C944306FC0180819181009711F00C9432
:100D9000530E089585ED8093BC0080913C039091A3
:100DA0003D03A0913E03B0913F030796A11DB11DE5
:100DB00023E0B695A795979587952A95D1F7209129
:100DC000BC0024FD03C010923A03089540913C03F7
:100DD00050913D0360913E0370913F03452B462B9C
:100DE000472B69F30097A105B10541F025E32A954A
:100DF000F1F700000197A109B109E1CF80913B0310
:100E00000C94F5021F920F920FB60F9211242F939C
:100E10003F934F935F936F937F938F939F93AF9382
:100E2000BF93EF93FF9388E793E00E940D01FF913A
:100E3000EF91BF91AF919F918F917F916F915F9152
:100E40004F913F912F910F900FBE0F901F901895CB
:100E50001F920F920FB60F9211242F938F939F938F
:100E6000EF93FF93E0918803F09189038081E091F3
:100E70008E03F0918F0382FD1BC0908180919103BE
:100E80008F5F8F7320919203821741F0E09191035D
:100E9000F0E0E858FC4F958F80939103FF91EF911C
:100EA0009F918F912F910F900FBE0F901F901895CB
:100EB0008081F4CF1F920F920FB60F9211242F93BF
:100EC0003F938F939F93AF93BF93809163039091D0
:100ED0006403A0916503B09166033091620323E03F
:100EE000230F2D3758F50196A11DB11D20936203E4
:100EF0008093630390936403A0936503B0936603A8
:100F00008091670390916803A0916903B0916A038F
:100F10000196A11DB11D8093670390936803A09370
:100F20006903B0936A03BF91AF919F918F913F91F5
:100F30002F910F900FBE0F901F90189526E8230F4A
:100F40000296A11DB11DD2CF1F920F920FB60F9224
:100F500011242F933F934F935F936F937F938F93BE
:100F60009F93AF93BF93EF93FF938091B900887FD6
:100F7000803609F44AC0F0F5883209F4A7C018F5A4
:100F8000803109F49BC0B8F4882309F4F9C0883093
:100F900009F494C0FF91EF91BF91AF919F918F9110
:100FA0007F916F915F914F913F912F910F900FBE65
:100FB0000F901F901895883109F488C0803251F73E
:100FC0008093380314C0803409F49DC040F480330A
:100FD000B9F38833F9F68093380385ECB0C08035D7
:100FE00009F485C0883509F496C0883499F60E94C2
:100FF000CA06D0CF883909F48CC038F5883729F073
:1010000050F4883611F0803729F683E080933A0354
:101010001092130357C0883809F47BC0803919F047
:10102000803809F0B7CF80911303803208F071C087
:10103000E091130381E08E0F809313038091BB0036
:10104000F0E0ED50FD4F80833DC0803B39F0E0F48F
:10105000803A09F479C0883A09F09CCF84E0809303
:101060003A031092F2021092F102E0917203F091B1
:10107000730309958091F10281110FC081E0809383
:10108000F1021092D10209C0803C09F4A6CF883C3D
:1010900009F4A3CF883B09F07DCFE091F20281E013
:1010A0008E0F8093F202F0E0EF52FD4F808180932B
:1010B000BB009091F2028091F10229C0809115034A
:1010C0008093BB0085EC8093BC0064CF9091370384
:1010D00080913603981758F5E091370381E08E0F21
:1010E00080933703F0E0EA5EFC4F8081E9CFE09126
:1010F000370381E08E0F809337038091BB00F0E0CF
:10110000EA5EFC4F808390913703809136039817F5
:10111000C8F285E8D8CFE091370381E08E0F809345
:1011200037038091BB00F0E0EA5EFC4F8083809142
:10113000390381115CCF81E08093140384EA8093AA
:10114000BC0010923A0326CF85EC8093BC0010922D
:101150003A0380911303803230F4E0911303F0E0FE
:10116000ED50FD4F10826091130370E0E091700329
:10117000F091710383EF92E00995109213030ACF67
:101180001092380334CFE8E7F3E01382128288EE3E
:1011900093E0A0E0B0E084839583A683B78323E146
:1011A00031E03183208325EC30E03587248724EC3F
:1011B00030E03787268720EC30E0318B208B21EC24
:1011C00030E0338B228B22EC30E0358B248B26EC05
:1011D00030E0378B268B118E128E138E148EE5E144
:1011E000F4E01382128284839583A683B78385E219
:1011F00091E091838083EDE8F4E01382128287E32B
:1012000091E09183808387E2848380E1818782E01B
:101210008287138661E471E087E894E00E94B1065A
:101220006EE471E081E894E00E94B10669E571E046
:101230008BE794E00E94B10662E871E085E794E0F4
:101240000E94B10662E871E08FE694E00E94B10668
:1012500062E871E089E694E00E94B10662E871E01C
:1012600083E694E00E94B10662E871E08DE594E0C7
:101270000E94B10662E871E087E594E00E94B10641
:1012800062E871E081E594E00E94B10662E871E0F5
:101290008BE494E00E94B10662E871E085E494E09A
:1012A0000E94B10662E871E08FE394E00E94B1060B
:1012B00062E871E089E394E00E94B10662E871E0BF
:1012C00083E394E00E94B10662E871E08DE294E06D
:1012D0000E94B10662E871E087E294E00E94B106E4
:1012E00062E871E081E294E00C94B106CF93DF9361
:1012F000CDB7DEB72C970FB6F894DEBF0FBECDBFCB
:10130000789484B5826084BD84B5816084BD85B5E0
:10131000826085BD85B5816085BD80916E008160EC
:1013200080936E0010928100809181008260809392
:101330008100809181008160809381008091800094
:101340008160809380008091B10084608093B100BF
:101350008091B00081608093B00080917A008460B9
:1013600080937A0080917A00826080937A008091E5
:101370007A00816080937A0080917A0080688093FF
:101380007A001092C1000E94F2040E94F20488E0E8
:101390008093980460E08DE894E00E949C0380E0D4
:1013A0000E94B604E0918803F091890382E0808373
:1013B000E0918403F09185031082E0918603F0911F
:1013C00087038FEC808310929003E0918C03F0915F
:1013D0008D0386E08083E0918A03F0918B03808106
:1013E00080618083E0918A03F0918B038081886023
:1013F0008083E0918A03F0918B03808180688083F1
:10140000E0918A03F0918B0380818F7D808360E07F
:1014100082E00E941C0260E083E00E941C0260E007
:1014200084E00E941C0261E082E00E94EE0161E023
:1014300083E00E94EE0161E084E00E94EE0161E041
:1014400085E00E941C0261E086E00E941C0261E0CF
:1014500087E00E941C0261E08BE00E941C0261E0B8
:101460008DE00E941C0260E08EE00E941C0262E09F
:101470008CE00E941C0201E010E061E087E00E9425
:10148000EE016CE271E080E090E00E947D0261E09C
:1014900085E00E94EE0182E00E94C5015C0183E0CC
:1014A0000E94C5016C0184E00E94C5017C0181E0BD
:1014B000A114B10409F080E0682E712C81E0C11400
:1014C000D10409F080E0482E512C81E0E114F104B0
:1014D00009F080E0282E312C8CE00E94C5019C018F
:1014E00091E02115310509F490E0809100018823F5
:1014F00051F1232B41F56AE070E080E090E00E941A
:101500007D028CE00E94C501892B09F07DC180918C
:101510006F0391E0892780936F0360919304882380
:1015200009F464C16B7F60939304686040E08DE8C8
:1015300094E00E949F041092980460E08DE894E08B
:101540000E949C0390E09093000180906D03909026
:101550006E03682D8DE00E94EE0181E090E0892805
:1015600011F090E080E090936E0380936D031A82F7
:1015700019821C821B821E821D8267E874E0CE01E4
:1015800001960E949A06B301CE0101960E94FA05C7
:10159000BC0185E794E00E949A06CE0101960E9464
:1015A000C2061A8219821C821B821E821D8261E879
:1015B00074E0CE0101960E949A06B201CE01019616
:1015C0000E94FA05BC018FE694E00E949A06CE01C3
:1015D00001960E94C2061A8219821C821B821E82F8
:1015E0001D826BE774E0CE0101960E949A06B1015C
:1015F000CE0101960E94FA05BC0189E694E00E94A2
:101600009A06CE0101960E94C206AB2809F0FEC0E0
:10161000CD2809F022C1EF2809F059C167E671E031
:1016200083E694E00E9464060E94E7048EE691E05F
:101630000E94750561E087E00E94EE0161E085E0AF
:101640000E94EE0160E08BE00E94EE0110936C03BB
:1016500000936B0385E00E94C50161E0892B09F0CE
:1016600060E070E0CE0101960E946E0661EA72E0D1
:10167000CE0107960E94B106BE016F5F7F4FCE017B
:1016800007960E943006BC018DE594E00E949A0600
:10169000CE0107960E94C206CE0101960E94C206A4
:1016A00086E00E94C50161E0892B09F060E070E0EE
:1016B000CE0101960E946E0665EA72E0CE010796A1
:1016C0000E94B106BE016F5F7F4FCE0107960E9458
:1016D0003006BC0187E594E00E949A06CE01079689
:1016E0000E94C206CE0101960E94C20687E00E94B7
:1016F000C50161E0892B09F060E070E0CE01019640
:101700000E946E0669EA72E0CE0107960E94B10659
:10171000BE016F5F7F4FCE0107960E943006BC016D
:1017200081E594E00E949A06CE0107960E94C206C7
:10173000CE0101960E94C2061A8219821C821B8267
:101740001E821D8265E774E0CE0101960E949A0612
:10175000CE0101960E94E8056FE674E00E94300613
:101760000E94E80569E674E00E9430060E94E805E0
:1017700063E674E00E9430060E94E8056DE574E0BF
:101780000E9430060E94E80567E574E00E9430067A
:101790000E94E80561E574E00E943006FC01448186
:1017A00055816081718188E793E00E948F0042E05B
:1017B00050E06DEA72E088E793E00E948F00CE016E
:1017C00001960E94C20668EE73E080E090E00E94FD
:1017D0007D0280E090E0892B09F44FCE0E94F90051
:1017E000882309F44ACE0E94000047CE862F8460E9
:1017F000809393046C6040E08DE894E00E949F0425
:1018000088E08093980499CE91E09DCECD2869F42C
:10181000EF28C1F06DE771E083E694E00E94640672
:101820000E94E70484E891E003CFEF2821F563E903
:1018300071E083E694E00E9464060E94E7048AE96E
:1018400091E0F6CE69EA71E083E694E00E946406D6
:101850000E94E70480EB91E0EBCEEF2809F063C033
:101860006FEB71E083E694E00E9464060E94E70457
:1018700086EC91E0DDCE60E087E00E94EE016CE254
:1018800071E080E090E00E947D0260E085E00E94CF
:10189000EE0161E08BE00E94EE0165ED71E083E610
:1018A00094E00E9464060E94E7048CED91E00E949F
:1018B000750581E00E94B6048DEE91E00E947505E9
:1018C000E3E0F0E0F0936C03E0936B03C3CE61E0E0
:1018D00087E00E94EE016CE271E080E090E00E94FF
:1018E0007D0261E085E00E94EE0161E08BE00E94F4
:1018F000EE016AEF71E083E694E00E9464060E94C4
:10190000E70481E092E00E94750581E00E94B60440
:1019100081E192E00E94750584E090E090936C0371
:1019200080936B0397CE61E087E00E94EE016CE24A
:1019300071E080E090E00E947D0261E085E00E941D
:10194000EE0180916B0390916C03009769F46EE156
:1019500072E083E694E00E9464060E94E70485E258
:1019600092E00E94750576CE8130910559F465E3C9
:1019700072E083E694E00E9464060E94E7048CE330
:1019800092E0EFCF8330910591F46BE472E083E64F
:1019900094E00E9464060E94E70482E592E00E94BF
:1019A000750581E00E94B6048EEE91E0DACF0497CF
:1019B00091F460E672E083E694E00E9464060E947F
:1019C000E70487E692E00E94750581E00E94B60474
:1019D00086E792E0C6CF60E872E083E694E00E947A
:1019E00064060E94E70487E892E00E94750581E0A2
:1019F0000E94B60481E992E0B4CF81E294E00E94B3
:101A0000C20687E294E00E94C2068DE294E00E9442
:101A1000C20683E394E00E94C20689E394E00E9438
:101A2000C2068FE394E00E94C20685E494E00E941F
:101A3000C2068BE494E00E94C20681E594E00E9415
:101A4000C20687E594E00E94C2068DE594E00E94FC
:101A5000C20683E694E00E94C20689E694E00E94F2
:101A6000C2068FE694E00E94C20685E794E00E94D9
:101A7000C2068BE794E00E94C20681E894E00E94CF
:101A8000C20687E894E00C94C206BB274A3031F4C2
:101A9000992322F4BDE2909581959F4F0C94510DAE
:101AA000BB27FB015527AA27880F991FAA1FA41738
:101AB00010F0A41B83955051B9F7A05DAA3308F02C
:101AC000A95DA193009779F7B111B1931192CB0160
:101AD0000C946A0DDC01FC01672F71917723E1F70B
:101AE000329704C07C916D9370836291AE17BF07EB
:101AF000C8F308952F923F924F925F926F927F9218
:101B00008F929F92AF92BF92CF92DF92EF92FF920D
:101B10000F931F93CF93DF93CDB7DEB7CA1BDB0BB9
:101B20000FB6F894DEBF0FBECDBF09942A8839885E
:101B300048885F846E847D848C849B84AA84B98465
:101B4000C884DF80EE80FD800C811B81AA81B98171
:101B5000CE0FD11D0FB6F894DEBF0FBECDBFED0185
:101B60000895EE0FFF1F0590F491E02D09940F9357
:101B70001F93CF93DF938230910510F482E090E0C1
:101B8000E0919B04F0919C0430E020E0B0E0A0E004
:101B9000309799F42115310509F44AC0281B390BF7
:101BA00024303105D8F58A819B816115710589F151
:101BB000FB0193838283FE0111C040815181028128
:101BC000138148175907E0F04817590799F41097FF
:101BD00061F012960C93129713961C933296CF01D4
:101BE000DF91CF911F910F91089500939B04109363
:101BF0009C04F4CF2115310551F04217530738F0FA
:101C0000A901DB019A01BD01DF01F801C1CFEF019C
:101C1000F9CF90939C0480939B04CDCFFE01E20FFB
:101C2000F31F819391932250310939832883D7CFB1
:101C30002091990430919A04232B41F420910301BF
:101C40003091040130939A0420939904209101016A
:101C5000309102012115310541F42DB73EB7409175
:101C6000050150910601241B350BE0919904F09178
:101C70009A04E217F307A0F42E1B3F0B281739072D
:101C800078F0AC014E5F5F4F2417350748F04E0FD8
:101C90005F1F50939A0440939904819391939FCF2F
:101CA000F0E0E0E09CCFCF93DF930097E9F0FC01F8
:101CB000329713821282A0919B04B0919C04ED0193
:101CC00030E020E01097A1F420813181820F931F32
:101CD0002091990430919A042817390709F061C0BE
:101CE000F0939A04E0939904DF91CF910895EA016B
:101CF000CE17DF07E8F54A815B819E01411551054A
:101D0000B1F7E901FB83EA8349915991C40FD51FCB
:101D1000EC17FD0761F4808191810296840F951F75
:101D2000E90199838883828193819B838A83F0E090
:101D3000E0E012968D919C9113970097B9F52D9143
:101D40003C911197CD010296820F931F2091990427
:101D500030919A042817390739F6309751F51092C7
:101D60009C0410929B04B0939A04A0939904BCCF56
:101D7000D383C28340815181840F951FC817D9072F
:101D800061F44E5F5F4F88819981480F591F5183DD
:101D900040838A819B81938382832115310509F0D9
:101DA000B0CFF0939C04E0939B049ECFFD01DC0137
:101DB000C0CF13821282D7CFB0E0A0E0E2EEFEE007
:101DC0000C947C0D8C01009751F4CB010E94B70D4F
:101DD0008C01C801CDB7DEB7E0E10C94980DFC0191
:101DE000E60FF71F9C0122503109E217F30708F4B0
:101DF0009DC0D901CD91DC911197C617D70798F0F6
:101E0000C530D10530F3CE0104978617970708F344
:101E1000C61BD70B2297C193D1936D937C93CF01AF
:101E20000E94530ED6CF5B01AC1ABD0A4C018C0E3A
:101E30009D1EA0919B04B0919C04512C412CF12C2F
:101E4000E12C109731F58091990490919A048815AE
:101E5000990509F05CC04616570608F058C08091F5
:101E6000010190910201009741F48DB79EB7409116
:101E7000050150910601841B950BE817F90708F03E
:101E800055C0F0939A04E0939904F901718360833B
:101E9000A0CF8D919C91119712966C9012971396EA
:101EA0007C901397A815B90559F56C0142E0C40E52
:101EB000D11CCA14DB0420F1AC014A195B09DA0118
:101EC0001296159780F06282738251834083D90104
:101ED0006D937C93E114F10471F0D7011396FC9398
:101EE000EE93129776CF22968C0F9D1FF901918366
:101EF0008083F301EFCFF0939C04E0939B0469CFC0
:101F00004816590608F42C017D01D3019ACFCB0164
:101F10000E94B70D7C01009749F0AE01B8010E9404
:101F2000990FC8010E94530E870153CF10E000E0C3
:101F300050CFFB01DC0102C001900D924150504096
:101F4000D8F70895FB01DC0101900D920020E1F724
:101F5000089510E0C2E6D0E004C0FE010E94B10D79
:0C1F60002196C336D107C9F7F894FFCFD3
:101F6C000100009D0480000000400014005400009B
:101F7C000000002F018F00BC007C01ED00CB00DFC6
:101F8C0000000000006D0340038304160339032690
:101F9C00031703000000006F058F008304AF023BA2
:101FAC00006765726B6F6E5F646F776E3D0067657F
:101FBC00726B6F6E5F75703D006765726B6F6E5FF5
:101FCC00616C61726D3D005F312E312E3100312E0E
:101FDC00312E3120414C41524D212121005F302EB8
:101FEC00312E3000312E312E3020414C41524D21BA
:101FFC002121005F302E302E3100302E302E31203A
:10200C00414C41524D212121005F302E312E3100A7
:10201C00302E312E3120414C41524D212121005F77
:10202C00312E302E3100312E302E3120414C415288
:10203C004D21212100496E745F73740053746174D7
:10204C007573203D20496E74616B65200020202043
:10205C0068617320626567756E00496E745F656EAA
:10206C0000496E74616B65206973206F7665722C04
:10207C000020206C6576656C2068696768004C5F91
:10208C006E6F726D004C6576656C206973206E6F97
:10209C00726D616C0066315F414C4100666C61672A
:1020AC003120414C41524D2121210066335F495F63
:1020BC007300466C6167203320496E74616B650058
:1020CC0066345F495F6500466C6167203420496E59
:1020DC0074616B65200020206973206F7665720037
:1020EC0075706279666C00537461747573206265E7
:1020FC00007570646174656420627920666C616738
:10210C000072313D0072323D0072333D000D0A0009
:00000001FF
